:100000000201A37A2879F078F0D8FED9FADAF6223C
:100010007A02799678A6D8FED9FADAF6227A0279A7
:100020008578A6D8FED9FADAF6227A0179EE78A692
:10003000D8FED9FADAF6227A0179E078A6D8FED984
:10004000FADAF6227A0179C878A6D8FED9FADAF671
:10005000227A0179B278A6D8FED9FADAF6227A01A4
:10006000799F78A6D8FED9FADAF6227A01799678BD
:10007000A6D8FED9FADAF6227A01798578A6D8FED2
:10008000D9FADAF6227A01797778A6D8FED9FADA9F
:10009000F6227A01797078A6D8FED9FADAF6227AB1
:1000A00001796478A6D8FED9FADAF6227A01794382
:1000B00078A5D8FED9FADAF6227D037C027B06B257
:1000C000B7120010DBF9DCF5DDF1227D037C027B49
:1000D00006B2B712001DDBF9DCF5DDF1227D037CF1
:1000E000027B06B2B712002ADBF9DCF5DDF1227DD6
:1000F000037C027B06B2B7120037DBF9DCF5DDF1D9
:10010000227D037C027B08B2B7120044DBF9DCF5E8
:10011000DDF1227D037C027B08B2B7120051DBF9CE
:10012000DCF5DDF1227D037C027B0AB2B712005EB2
:10013000DBF9DCF5DDF1227D037C027B0AB2B7122C
:10014000006BDBF9DCF5DDF1227D037C027B0AB27A
:10015000B7120078DBF9DCF5DDF1227D027C047B4F
:100160000AB2B7120085DBF9DCF5DDF1227D027CF5
:10017000047B0AB2B7120092DBF9DCF5DDF1227DD7
:10018000027C047B0AB2B712009FDBF9DCF5DDF1DB
:10019000227D037C027B0AB2B71200ACDBF9DCF5EE
:1001A000DDF12275817F75C10012017F12017F127E
:1001B000015B12016D12017F12017F12015B1201BE
:1001C0006D12017F12010112011312012512013774
:1001D00012014912015B12016D12015B12015B12E7
:1001E000013712014912015B12015B1200DD12009E
:1001F000EF1201011201131201011200EF120101AD
:100200001200DD1200EF1201011200EF1200EF12D6
:1002100001131201011200EF1200EF1200DD1200B3
:10022000CB1200DD1200CB1200B91200CB1200DDA0
:100230001200EF1201011201131200EF1200EF126F
:1002400001131201011201131201131201251201EF
:10025000371201011201131201251201371201494F
:0C02600012015B12016D12017F0201A966
:00000001FF
