:100000000201B27A2879F078F0D8FED9FADAF6222D
:100010007A01799678A6D8FED9FADAF6227A0179A9
:100020008578A6D8FED9FADAF6227A0179EE7853E5
:10003000D8FED9FADAF6227A0179E07853D8FED9D7
:10004000FADAF6227A0179C87853D8FED9FADAF6C4
:10005000227A0179B27853D8FED9FADAF6227A01F7
:10006000799F7853D8FED9FADAF6227A0179967810
:1000700053D8FED9FADAF6227A0179857853D8FE78
:10008000D9FADAF6227A0179777853D8FED9FADAF2
:10009000F6227A0179707853D8FED9FADAF6227A04
:1000A0000179647853D8FED9FADAF6227A017943D5
:1000B00078A5D8FED9FADAF6227D037C017B06B258
:1000C000B7120010DBF9DCF5DDF1227D037C017B4A
:1000D00006B2B712001DDBF9DCF5DDF1227D037CF1
:1000E000017B06B2B712002ADBF9DCF5DDF1227DD7
:1000F000037C017B06B2B7120037DBF9DCF5DDF1DA
:10010000227D037C017B08B2B7120044DBF9DCF5E9
:10011000DDF1227D037C017B08B2B7120051DBF9CF
:10012000DCF5DDF1227D037C017B0AB2B712005EB3
:10013000DBF9DCF5DDF1227D037C017B0AB2B7122D
:10014000006BDBF9DCF5DDF1227D037C017B0AB27B
:10015000B7120078DBF9DCF5DDF1227D027C047B4F
:100160000AB2B7120085DBF9DCF5DDF1227D027CF5
:10017000047B0AB2B7120092DBF9DCF5DDF1227DD7
:10018000027C047B0AB2B712009FDBF9DCF5DDF1DB
:10019000227D037C017B0AB2B71200ACDBF9DCF5EF
:1001A000DDF1227D647C147B64B2B7DBFCDCF8DD1E
:1001B000F42275817F75C1001202661203271203B3
:1001C000271202661203271203271203881204491A
:1001D00012050B12050B12050B12050B12053C1232
:1001E000053C12053C12053C12053C12053C12056B
:1001F0003C12055512056E12062312062312056ED7
:1002000012062312062312056E120623120623126B
:10021000056E12062312062312067E1206D9120557
:100220006E1206D91206D91206D91206D91207374C
:1002300012073712073712073712076812076812BA
:100240000768120768120768120768120768120722
:100250006812056E12062312062312056E1206237B
:100260001206230201B81201131201131201131214
:1002700001131201A31201A312011312011312019F
:10028000131201131201A31201A31201131201137D
:100290001201A31201A3120113120113120113126E
:1002A00001131201A31201A312011312011312016F
:1002B000131201131201A31201A3120149120149E1
:1002C0001201A31201A3120149120149120149129C
:1002D00001491201A31201A312014912014912019D
:1002E000491201491201A31201A312013712013769
:1002F0001201A31201A312013712013712013712A2
:1003000001371201A31201A31201371201371201A2
:10031000371201371201A31201A3120101120101C8
:100320001201A31201A322120113120113120113CD
:100330001201131201A31201A312011312011312CD
:1003400001131201131201A31201A31201131201CE
:10035000131201A31201A3120113120113120113AC
:100360001201131201A31201A3120113120113129D
:1003700001131201131201A31201A3120149120168
:10038000491201A31201A3221201131201A31201A7
:10039000131201A31201131201A31201131201A3DC
:1003A0001201131201131201A31201A3120113125D
:1003B00001131201A31201A312011312011312015E
:1003C000131201131201A31201A31201131201133C
:1003D0001201131201131201A31201A312014912F7
:1003E00001491201A31201A312014912014912018C
:1003F000491201491201A31201A312014912014934
:100400001201491201491201A31201A3120137126C
:1004100001371201A31201A3120137120137120191
:10042000371201371201A31201A31201371201374B
:100430001201011201011201011201011201011246
:100440000101120101120101221201131201A31272
:1004500001131201A31201131201A31201131201BD
:10046000A31201131201131201A31201A31201130B
:100470001201131201A31201A3120113120113128C
:1004800001131201131201A31201A312011312018D
:10049000131201131201131201A31201A312014935
:1004A0001201491201A31201A31201131201131226
:1004B00001131201131201A31201A312011312015D
:1004C000131201131201131201A31201A31201133B
:1004D0001201131201A31201A3120113120113122C
:1004E00001131201131201A31201A312011312012D
:1004F000131201131201131201A31201A3120149D5
:100500001201491201A31201A322221201131201A6
:10051000A31201131201A31201131201A31201135A
:100520001201A3120113120113120113120113126B
:1005300001A31201A31201A31201A322120113129B
:1005400001A31201131201A31201131201A312013C
:10055000131201A3221201131201011200EF120063
:10056000DD1200CB1200B91201A31201A322120165
:10057000131201A31201131201A31201131201A3FA
:100580001201131201A31201131201131201A3127B
:1005900001131201A31201131201A312011312017C
:1005A000A31201131201A31201131201A3120113CA
:1005B0001201A31201131201131201A31201491215
:1005C00001A31201491201A31201491201A3120150
:1005D000491201A31201491201A31201491201A3F8
:1005E0001201491201491201A31201371201A3128B
:1005F00001371201A31201371201A31201371201B0
:10060000A31201371201A31201371201A3120137FD
:100610001201371201A31201011201A312010112EA
:1006200001A3221201131201A31201131201A3123A
:1006300001131201A31201131201A31201131201DB
:10064000131201A31201131201A31201131201A329
:100650001201131201A31201131201A312011312AA
:1006600001A31201131201A31201131201131201AB
:10067000A31201491201491201491201A3221201D8
:10068000131201A31201131201A31201131201A3E9
:100690001201131201A31201131201131201A3126A
:1006A00001131201A31201131201A312011312016B
:1006B000A31201131201A31201131201A3120113B9
:1006C0001201A31201131201131201A31201371216
:1006D00001371201A31201A3221201131201A31266
:1006E00001131201A31201131201A312011312012B
:1006F000A31201131201131201A31201131201A379
:100700001201131201A31201131201A312011312F9
:1007100001A31201131201A31201131201A312016A
:10072000371201371201371201A3120137120137B4
:100730001201371201A3221201131201A312011395
:100740001201A31201131201A31201131201A31229
:1007500001371201371201371201A31201371201BA
:10076000371201371201A3221201131201A3120141
:10077000131201A31201371201371201371201A31C
:010780002256
:00000001FF
